:100000000C9462000C948A000C948A000C948A0070
:100010000C948A000C948A000C948A000C948A0038
:100020000C948A000C948A000C948A000C948A0028
:100030000C948A000C948A000C948A000C948A0018
:100040000C943C020C948A000C94AC020C94860232
:100050000C948A000C948A000C948A000C948A00F8
:100060000C948A000C948A000000000023002600F3
:10007000290000000008000201000003040700003E
:1000800000000000000000000000250028002B00F8
:1000900000000000240027002A00040404040404D3
:1000A0000404020202020202030303030303010227
:1000B00004081020408001020408102001020408F6
:1000C0001020720411241FBECFEFD8E0DEBFCDBFD9
:1000D00011E0A0E0B1E0E6ECF9E002C005900D927D
:1000E000A631B107D9F721E0A6E1B1E001C01D9228
:1000F000AD3BB207E1F710E0C2E6D0E004C02197C3
:10010000FE010E94CC04C136D107C9F70E94DE026D
:100110000C94E1040C94000090E0FC01E255FF4FC8
:10012000249186569F4FFC018491882399F090E09A
:10013000880F991FFC01E057FF4FA591B491FC0176
:10014000EA57FF4F859194918FB7F894EC91E22B89
:10015000EC938FBF0895833081F028F4813099F0BB
:100160008230A9F008958730A9F08830C9F0843032
:10017000B1F4809180008F7D03C0809180008F77E3
:1001800080938000089584B58F7784BD089584B5E9
:100190008F7DFBCF8091B0008F778093B000089562
:1001A0008091B0008F7DF9CF1F93CF93DF93282FDD
:1001B00030E0F901EE58FF4F8491F901E255FF4F0D
:1001C000D491F901E656FF4FC491CC23A9F0162F24
:1001D00081110E94AB00EC2FF0E0EE0FFF1FEA57F9
:1001E000FF4FA591B4918FB7F894EC91111108C00D
:1001F000D095DE23DC938FBFDF91CF911F910895BF
:10020000DE2BF8CFAF92BF92CF92DF92EF92FF92A8
:100210000F931F93CF93DF936C017B018B01040F2E
:10022000151FEB015E01AE18BF08C017D10759F0CA
:100230006991D601ED91FC910190F081E02DC6010C
:100240000995892B79F7C501DF91CF911F910F9106
:10025000FF90EF90DF90CF90BF90AF900895FC019A
:10026000538D448D252F30E0842F90E0821B930B1B
:10027000541710F0CF96089501970895FC01918DC1
:10028000828D981761F0A28DAE0FBF2FB11D5D96C4
:100290008C91928D9F5F9F73928F90E008958FEF66
:1002A0009FEF0895FC01918D828D981731F0828D1A
:1002B000E80FF11D858D90E008958FEF9FEF089571
:1002C000FC01918D228D892F90E0805C9F4F821BD5
:1002D00091098F739927089587E191E00E94600149
:1002E00021E0892B09F420E0822F089580E090E03E
:1002F000892B29F00E946C0181110C940000089553
:10030000FC01A48DA80FB92FB11DA35ABF4F2C918A
:10031000848D90E001968F739927848FA689B78981
:100320002C93A089B1898C91837080648C93938D78
:10033000848D981306C00288F389E02D80818F7D1B
:1003400080830895EF92FF920F931F93CF93DF93D3
:10035000EC0181E0888F9B8D8C8D98131AC0E88901
:10036000F989808185FF15C09FB7F894EE89FF89D0
:100370006083E889F98980818370806480839FBF6E
:1003800081E090E0DF91CF911F910F91FF90EF906E
:100390000895F62E0B8D10E00F5F1F4F0F7311277E
:1003A000E02E8C8D8E110CC00FB607FCFACFE889B9
:1003B000F989808185FFF5CFCE010E948001F1CFC0
:1003C000EB8DEC0FFD2FF11DE35AFF4FF0829FB72D
:1003D000F8940B8FEA89FB8980818062CFCFCF931D
:1003E000DF93EC01888D8823B9F0AA89BB89E8895D
:1003F000F9898C9185FD03C0808186FD0DC00FB603
:1004000007FCF7CF8C9185FFF2CF808185FFEDCF80
:10041000CE010E948001E9CFDF91CF910895CF9363
:10042000DF93D82FC92F60E08AE00E94D4000CB47B
:1004300005FC15C0CEBD00000DB407FEFDCFCEB546
:10044000DEBD00000DB407FEFDCFDEB561E08AE041
:100450000E94D4008D2F9C2FDF91CF910895DEBD97
:1004600000000DB407FEFDCFDEB5CEBD00000DB41B
:1004700007FEFDCFCEB5EACF1F920F920FB60F92B7
:1004800011242F933F938F939F93AF93BF938091AA
:10049000B9019091BA01A091BB01B091BC0130911A
:1004A000B80123E0230F2D3758F50196A11DB11D8A
:1004B0002093B8018093B9019093BA01A093BB0136
:1004C000B093BC018091B4019091B501A091B601A7
:1004D000B091B7010196A11DB11D8093B401909315
:1004E000B501A093B601B093B701BF91AF919F91B1
:1004F0008F913F912F910F900FBE0F901F901895E5
:1005000026E8230F0296A11DB11DD2CF1F920F9294
:100510000FB60F9211242F933F934F935F936F93D6
:100520007F938F939F93AF93BF93EF93FF9387E155
:1005300091E00E948001FF91EF91BF91AF919F9157
:100540008F917F916F915F914F913F912F910F907C
:100550000FBE0F901F9018951F920F920FB60F921B
:1005600011242F938F939F93EF93FF93E091270193
:10057000F09128018081E0912D01F0912E0182FD02
:100580001BC09081809130018F5F8F73209131016A
:10059000821741F0E0913001F0E0E95EFE4F958F67
:1005A00080933001FF91EF919F918F912F910F9048
:1005B0000FBE0F901F9018958081F4CFCF93DF93DB
:1005C000CDB7DEB7AB970FB6F894DEBF0FBECDBF89
:1005D000789484B5826084BD84B5816084BD85B51E
:1005E000826085BD85B5816085BD80916E0081602A
:1005F00080936E00109281008091810082608093D0
:1006000081008091810081608093810080918000D1
:100610008160809380008091B10084608093B100FC
:100620008091B00081608093B00080917A008460F6
:1006300080937A0080917A00826080937A00809122
:100640007A00816080937A0080917A00806880933C
:100650007A001092C1008AE00E948C0061E08AE07A
:100660000E94D4001FB7F89480911601811124C014
:10067000E4EAF0E08491E8EBF0E09491E82FF0E018
:10068000EE0FFF1FE057FF4FA591B491EC91E923C6
:1006900021F461E08AE00E94D4008AE00E948C008C
:1006A0008CB580618CBD8CB580648CBD8DE00E9462
:1006B0008C008BE00E948C00809116018F5F8093EC
:1006C00016011FBFE0912701F091280182E080838D
:1006D000E0912301F09124011082E0912501F09135
:1006E00026018FEC808310922F01E0912B01F09175
:1006F0002C0186E08083E0912901F0912A0180811C
:1007000080618083E0912901F0912A0180818860D5
:100710008083E0912901F0912A01808180688083A3
:10072000E0912901F0912A0180818F7D8083F12C55
:10073000E12C1E012CE2220E311C09E687E191E03A
:100740000E946001892B99F08AE0E816F1049CF47C
:1007500087E191E00E943E01E2E2F0E0EC0FFD1F34
:10076000EE0DFF1D8083EFEFEE1AFE0AE7CFFAE0F1
:10077000EF16F1041CF35E0122E2A20EB11C45014A
:10078000C12CD12C7601AAE0B0E0A70196010E940D
:10079000C104F40121914F01022E000C330B2053B0
:1007A00031096901330FEE08FF08C60ED71EE81E97
:1007B000F91E2E163F0639F78F2D9927AA27BB273A
:1007C00089329105A105B10559F08C339105A10538
:1007D000B10531F085329105A105B10509F079C067
:1007E0008997A105B10509F03FC027016624772448
:1007F00061E0D701C601AA27BB278F3F9F4FA10504
:10080000B10509F060E0842D0E94D400242D30E071
:10081000F901EE58FF4F8491F901E255FF4FE49141
:10082000F901E656FF4F1491112361F081110E94E6
:10083000AB00E12FF0E0EE0FFF1FE859FF4FA5914D
:10084000B4918C91C2010E940F0290E080E00E945E
:100850000F02C2010E940F02C6010E940F0290E027
:1008600080E00E940F023C01CC24DD24930150E083
:1008700040E02C293D294E295F2919A27E0181E201
:10088000E80EF11CCA01B9012AE030E040E050E076
:100890000E949F04605DF70162937F01211531057D
:1008A0004105510579F7309761F001900020E9F793
:1008B0003197AF014E195F09B70187E191E00E94BE
:1008C000020142E050E062E171E087E191E00E94C4
:1008D0000201F50101935F018E169F06D1F7F12CFD
:1008E000E12C2CCFE7E1F1E01382128288EE93E055
:1008F000A0E0B0E084839583A683B78384E091E091
:100900009183808385EC90E09587848784EC90E0E8
:100910009787868780EC90E0918B808B81EC90E0CC
:10092000938B828B82EC90E0958B848B86EC90E0AD
:10093000978B868B118E128E138E148E0895A1E2E2
:100940001A2EAA1BBB1BFD010DC0AA1FBB1FEE1F49
:10095000FF1FA217B307E407F50720F0A21BB30B94
:10096000E40BF50B661F771F881F991F1A9469F710
:1009700060957095809590959B01AC01BD01CF016C
:1009800008950E94D204A59F900DB49F900DA49F3E
:10099000800D911D11240895EE0FFF1F0590F49115
:1009A000E02D0994A29FB001B39FC001A39F700DD9
:1009B000811D1124911DB29F700D811D1124911D67
:0609C0000895F894FFCF3A
:1009C60000000000A20102012F01EF0160013E01BB
:0609D60052010D0A0000B1
:00000001FF
