:020000040000FA
:100000000C945D000C9485000C9485000C94850084
:100010000C9485000C9485000C9485000C9485004C
:100020000C9485000C9485000C9485000C9485003C
:100030000C9485000C9485000C9485000C9485002C
:100040000C942C020C9485000C949C020C94760267
:100050000C9485000C9485000C9485000C9485000C
:100060000C9485000C94850000000008000201003B
:100070000003040700000000000000000000000072
:10008000250028002B0000000000240027002A0083
:10009000040404040404040402020202020203032E
:1000A0000303030301020408102040800102040836
:1000B0001020010204081020420411241FBECFEFBB
:1000C000D8E0DEBFCDBF11E0A0E0B1E0E6E6F9E0A8
:1000D00002C005900D92A631B107D9F721E0A6E143
:1000E000B1E001C01D92AD3BB207E1F710E0CDE5F4
:1000F000D0E004C02197FE010E949C04CC35D107BA
:10010000C9F70E94CE020C94B1040C94000090E058
:10011000FC01EC55FF4F249180579F4FFC018491C7
:10012000882399F090E0880F991FFC01EA57FF4F50
:10013000A591B491FC01E458FF4F859194918FB73C
:10014000F894EC91E22BEC938FBF089590E0FC01C2
:10015000E859FF4F2491FC01EC55FF4F3491FC010D
:10016000E057FF4FE491EE23C9F0222339F023300A
:1001700001F1A8F4213019F1223029F1F0E0EE0F5D
:10018000FF1FE458FF4FA591B4918FB7F894EC91FD
:10019000611126C030953E233C938FBF08952730D0
:1001A000A9F02830C9F0243049F7809180008F7D74
:1001B00003C0809180008F7780938000DFCF84B56B
:1001C0008F7784BDDBCF84B58F7DFBCF8091B0006E
:1001D0008F778093B000D2CF8091B0008F7DF9CF20
:1001E0003E2BDACFAF92BF92CF92DF92EF92FF9287
:1001F0000F931F93CF93DF936C017B018B01040F4F
:10020000151FEB015E01AE18BF08C017D10759F0EA
:100210006991D601ED91FC910190F081E02DC6012C
:100220000995892B79F7C501DF91CF911F910F9126
:10023000FF90EF90DF90CF90BF90AF900895FC01BA
:10024000538D448D252F30E0842F90E0821B930B3B
:10025000541710F0CF96089501970895FC01918DE1
:10026000828D981761F0A28DAE0FBF2FB11D5D96E4
:100270008C91928D9F5F9F73928F90E008958FEF86
:100280009FEF0895FC01918D828D981731F0828D3A
:10029000E80FF11D858D90E008958FEF9FEF089591
:1002A000FC01918D228D892F90E0805C9F4F821BF5
:1002B00091098F739927089587E191E00E94500179
:1002C00021E0892B09F420E0822F089580E090E05E
:1002D000892B29F00E945C0181110C940000089583
:1002E000FC01A48DA80FB92FB11DA35ABF4F2C91AB
:1002F000848D90E001968F739927848FA689B789A2
:100300002C93A089B1898C91837080648C93938D98
:10031000848D981306C00288F389E02D80818F7D3B
:1003200080830895EF92FF920F931F93CF93DF93F3
:10033000EC0181E0888F9B8D8C8D98131AC0E88921
:10034000F989808185FF15C09FB7F894EE89FF89F0
:100350006083E889F98980818370806480839FBF8E
:1003600081E090E0DF91CF911F910F91FF90EF908E
:100370000895F62E0B8D10E00F5F1F4F0F7311279E
:10038000E02E8C8D8E110CC00FB607FCFACFE889D9
:10039000F989808185FFF5CFCE010E947001F1CFF0
:1003A000EB8DEC0FFD2FF11DE35AFF4FF0829FB74D
:1003B000F8940B8FEA89FB8980818062CFCFCF933D
:1003C000DF93EC01888D8823B9F0AA89BB89E8897D
:1003D000F9898C9185FD03C0808186FD0DC00FB623
:1003E00007FCF7CF8C9185FFF2CF808185FFEDCFA1
:1003F000CE010E947001E9CFDF91CF910895CF9394
:10040000DF93D82FC92F60E08AE00E94A6000CB4C9
:1004100005FC15C0CEBD00000DB407FEFDCFCEB566
:10042000DEBD00000DB407FEFDCFDEB561E08AE061
:100430000E94A6008D2F9C2FDF91CF910895DEBDE5
:1004400000000DB407FEFDCFDEB5CEBD00000DB43B
:1004500007FEFDCFCEB5EACF1F920F920FB60F92D7
:1004600011242F933F938F939F93AF93BF938091CA
:10047000B9019091BA01A091BB01B091BC0130913A
:10048000B80123E0230F2D3758F50196A11DB11DAA
:100490002093B8018093B9019093BA01A093BB0156
:1004A000B093BC018091B4019091B501A091B601C7
:1004B000B091B7010196A11DB11D8093B401909335
:1004C000B501A093B601B093B701BF91AF919F91D1
:1004D0008F913F912F910F900FBE0F901F90189505
:1004E00026E8230F0296A11DB11DD2CF1F920F92B5
:1004F0000FB60F9211242F933F934F935F936F93F7
:100500007F938F939F93AF93BF93EF93FF9387E175
:1005100091E00E947001FF91EF91BF91AF919F9187
:100520008F917F916F915F914F913F912F910F909C
:100530000FBE0F901F9018951F920F920FB60F923B
:1005400011242F938F939F93EF93FF93E0912701B3
:10055000F09128018081E0912D01F0912E0182FD22
:100560001BC09081809130018F5F8F73209131018A
:10057000821741F0E0913001F0E0E95EFE4F958F87
:1005800080933001FF91EF919F918F912F910F9068
:100590000FBE0F901F9018958081F4CFCF93DF93FB
:1005A000CDB7DEB7AB970FB6F894DEBF0FBECDBFA9
:1005B000789484B5826084BD84B5816084BD85B53E
:1005C000826085BD85B5816085BD80916E0081604A
:1005D00080936E00109281008091810082608093F0
:1005E00081008091810081608093810080918000F2
:1005F0008160809380008091B10084608093B1001D
:100600008091B00081608093B00080917A00846016
:1006100080937A0080917A00826080937A00809142
:100620007A00816080937A0080917A00806880935C
:100630007A001092C1008AE00E94870082E00E9446
:10064000870083E00E94870061E08AE00E94A600A4
:100650008DE58CBD1DBC1FB7F894809116018111EA
:1006600024C0EAE9F0E08491EEEAF0E09491E82F0A
:10067000F0E0EE0FFF1FEA57FF4FA591B491EC9108
:10068000E92321F461E08AE00E94A6008AE00E944A
:1006900087008CB580618CBD8CB580648CBD8DE08D
:1006A0000E9487008BE00E948700809116018F5F77
:1006B000809316011FBFE0912701F091280182E08D
:1006C0008083E0912301F09124011082E0912501C3
:1006D000F09126018FEC808310922F01E0912B0185
:1006E000F0912C0186E08083E0912901F0912A01AC
:1006F000808180618083E0912901F0912A018081CD
:1007000088608083E0912901F0912A0180818068CE
:100710008083E0912901F0912A0180818F7D80837F
:1007200010E000E01E018CE2280E311C9AE0492EF8
:10073000512C612C712C87E191E00E945001892B92
:1007400089F00A3011058CF487E191E00E942E01B6
:10075000E2E2F0E0EC0FFD1FE00FF11F80830F5F7E
:100760001F4FE9CF0A30110534F38E010E5D1F4F84
:100770005801C12CD12C7601AAE0B0E0A701960166
:100780000E949104F50121915F01022E000C330BB0
:10079000205331096901330FEE08FF08C60ED71E3A
:1007A000E81EF91E2E163F0639F78F2D9927AA2726
:1007B000BB27AC01BD014F77552766277727493204
:1007C00051056105710559F04C33510561057105FD
:1007D00031F0453251056105710509F049C08F7747
:1007E000853279F461E083E00E94A600C7010E948F
:1007F000FF01C6010E94FF0190E080E00E94FF011E
:100800004C0161E082E00E94A600CC24DD2494012A
:1008100050E040E02C293D294E295F2919A27E0194
:10082000F1E2EF0EF11CCA01B901A30192010E948D
:100830006F04605DF70162937F0121153105410569
:10084000510589F7309761F001900020E9F7319761
:10085000AF014E195F09B70187E191E00E94F200F4
:1008600042E050E062E171E087E191E00E94F20035
:10087000F80189E681938F01AE16BF06C9F710E033
:1008800000E059CFE7E1F1E01382128288EE93E0B5
:10089000A0E0B0E084839583A683B78384E091E0F1
:1008A0009183808385EC90E09587848784EC90E049
:1008B0009787868780EC90E0918B808B81EC90E02D
:1008C000938B828B82EC90E0958B848B86EC90E00E
:1008D000978B868B118E128E138E148E0895A1E243
:1008E0001A2EAA1BBB1BFD010DC0AA1FBB1FEE1FAA
:1008F000FF1FA217B307E407F50720F0A21BB30BF5
:10090000E40BF50B661F771F881F991F1A9469F770
:1009100060957095809590959B01AC01BD01CF01CC
:1009200008950E94A204A59F900DB49F900DA49FCE
:10093000800D911D11240895EE0FFF1F0590F49175
:10094000E02D0994A29FB001B39FC001A39F700D39
:10095000811D1124911DB29F700D811D1124911DC7
:100960000895F894FFCF000000009201F2001F01EB
:0C097000DF0150012E0142010D0A0000C1
:107E0000112484B714BE81FFF0D085E080938100F7
:107E100082E08093C00088E18093C10086E0809377
:107E2000C20080E18093C4008EE0C9D0259A86E02C
:107E300020E33CEF91E0309385002093840096BBD3
:107E4000B09BFECF1D9AA8958150A9F7CC24DD24C4
:107E500088248394B5E0AB2EA1E19A2EF3E0BF2EE7
:107E6000A2D0813461F49FD0082FAFD0023811F036
:107E7000013811F484E001C083E08DD089C08234E0
:107E800011F484E103C0853419F485E0A6D080C0E4
:107E9000853579F488D0E82EFF2485D0082F10E0AE
:107EA000102F00270E291F29000F111F8ED06801E7
:107EB0006FC0863521F484E090D080E0DECF843638
:107EC00009F040C070D06FD0082F6DD080E0C81688
:107ED00080E7D80618F4F601B7BEE895C0E0D1E017
:107EE00062D089930C17E1F7F0E0CF16F0E7DF06D8
:107EF00018F0F601B7BEE89568D007B600FCFDCFD4
:107F0000A601A0E0B1E02C9130E011968C91119780
:107F100090E0982F8827822B932B1296FA010C0160
:107F200087BEE89511244E5F5F4FF1E0A038BF0790
:107F300051F7F601A7BEE89507B600FCFDCF97BE46
:107F4000E89526C08437B1F42ED02DD0F82E2BD052
:107F50003CD0F601EF2C8F010F5F1F4F84911BD097
:107F6000EA94F801C1F70894C11CD11CFA94CF0C13
:107F7000D11C0EC0853739F428D08EE10CD085E9AC
:107F80000AD08FE07ACF813511F488E018D01DD067
:107F900080E101D065CF982F8091C00085FFFCCF94
:107FA0009093C60008958091C00087FFFCCF809118
:107FB000C00084FD01C0A8958091C6000895E0E648
:107FC000F0E098E1908380830895EDDF803219F02E
:107FD00088E0F5DFFFCF84E1DECF1F93182FE3DFCA
:107FE0001150E9F7F2DF1F91089580E0E8DFEE27F6
:047FF000FF270994CA
:027FFE00040479
:00000001FF
