:100000000C9435010C9466010C9466010C94660105
:100010000C9466010C9466010C9466010C946601C4
:100020000C9466010C9466010C9466010C946601B4
:100030000C9466010C9466010C9466010C946601A4
:100040000C9466010C9466010C9466010C94660194
:100050000C9466010C9466010C9466010C947D036B
:100060000C9466010C94F1030C94C7030C94660184
:100070000C9466010C9466010C9466010C94660164
:100080000C9466010C9466010C9466010C94660154
:100090000C9466010C9466010C9466010C94660144
:1000A0000C9466010C9466010C9466010C94660134
:1000B0000C9466010C9466010C9466010C94660124
:1000C0000C9466010C9466010C9466010C94660114
:1000D0000C9466010C9466010C9466010C94660104
:1000E0000C9466010C94AB010C94E0010C94CE01CD
:1000F0000C94CA010C94AF010C94C4010C946C02D2
:100100000C94DC010C941F060C9449020C94B2026E
:100110000C94BA010C94C0010C947A020C9458020D
:100120000C94D8010C94E5010C94FF020C94A501E9
:100130000C94E6010C941C020C94B3010C94EA019B
:100140000C94B7010C94D20100002000230026007B
:1001500029002C002F0032000001000003010601DD
:10016000090100000A0B02090C0D0E080703040127
:10017000000000000000000000000000000000007F
:10018000000000000000000000000000000012114C
:10019000100000000000000000000000000000004F
:1001A00000000000000000000000220025002800E0
:1001B0002B002E003100340002010000050108016F
:1001C0000B0100002100240027002A002D00300030
:1001D000330001010000040107010A0105050505BE
:1001E000070508080808020202020A0A08080404AF
:1001F00004040101010101010101030303030303DD
:100200000303040707070C0C0C0C0C0C0C0C02026B
:10021000020206060606060606060B0B0B0B0B0B68
:100220000B0B0102102020080810204010204080F5
:1002300002010201080402010102040810204080AA
:100240008040201008040201800402018040201038
:100250000804020108040201010204081020408081
:1002600001020408102040801F0611241FBECFEF9A
:10027000D1E2DEBFCDBF00E00CBF12E0A0E0B2E0F3
:10028000E4E2FDE000E00BBF02C007900D92A63152
:10029000B107D9F722E0A6E1B2E001C01D92AD3B63
:1002A000B207E1F711E0C5E3D1E000E006C0219715
:1002B0000109802FFE010E946E06C433D10780E041
:1002C0000807A9F70E9427040C9490060C940000DC
:1002D00090E0FC01EE5DFD4F249184529E4FFC01A5
:1002E0008491882399F090E0880F991FFC01EE53C8
:1002F000FE4FA591B491FC01E855FE4F8591949174
:100300008FB7F894EC91E22BEC938FBF0895815056
:10031000823108F05AC0E82FF0E08827ED56FE4FF2
:100320008F4F0C946E06B301B701A501AB01AF016D
:10033000E501BA01C001C401CA01CE01D201D80150
:10034000DC01E501E001E601EA01809180008F77A0
:10035000809380000895809180008F7DF9CF8091F7
:100360008000877FF5CF84B58F7784BD089584B5ED
:100370008F7DFBCF8091B0008F778093B000089580
:100380008091B0008F7DF9CF809190008F7780931E
:1003900090000895809190008F7DF9CF809190001A
:1003A000877FF5CF8091A0008F778093A00008957C
:1003B0008091A0008F7DF9CF8091A000877FF5CF3D
:1003C000809120018F7780932001089580912001F2
:1003D0008F7DF9CF80912001877FF5CF1F93CF9339
:1003E000DF93282F30E0F901EE59FE4F8491F90197
:1003F000EE5DFD4FD491F901E452FE4FC491CC2340
:10040000A9F0162F81110E948701EC2FF0E0EE0F6A
:10041000FF1FE855FE4FA591B4918FB7F894EC916A
:10042000111108C0D095DE23DC938FBFDF91CF91EF
:100430001F910895DE2BF8CFAF92BF92CF92DF923B
:10044000EF92FF920F931F93CF93DF936C017B0189
:100450008B01040F151FEB015E01AE18BF08C0171A
:10046000D10759F06991D601ED91FC910190F0818D
:10047000E02DC6011995892B79F7C501DF91CF9140
:100480001F910F91FF90EF90DF90CF90BF90AF90B2
:100490000895FC01538D448D252F30E0842F90E08A
:1004A000821B930B541710F0CF960895019708956F
:1004B000FC01918D828D981761F0A28DAE0FBF2F38
:1004C000B11D5D968C91928D9F5F9F73928F90E08E
:1004D00008958FEF9FEF0895FC01918D828D9817FD
:1004E00031F0828DE80FF11D858D90E008958FEF3A
:1004F0009FEF0895FC01918D228D892F90E0805C03
:100500009F4F821B91098F739927089587E192E08D
:100510000E947A0221E0892B09F420E0822F0895BD
:10052000FC01A48DA80FB92FB11DA35ABF4F2C9168
:10053000848D90E001968F739927848FA689B7895F
:100540002C93A089B1898C91837080648C93938D56
:10055000848D981306C00288F389E02D80818F7DF9
:1005600080830895EF92FF920F931F93CF93DF93B1
:10057000EC0181E0888F9B8D8C8D98131AC0E889DF
:10058000F989808185FF15C09FB7F894EE89FF89AE
:100590006083E889F98980818370806480839FBF4C
:1005A00081E090E0DF91CF911F910F91FF90EF904C
:1005B0000895F62E0B8D10E00F5F1F4F0F7311275C
:1005C000E02E8C8D8E110CC00FB607FCFACFE88997
:1005D000F989808185FFF5CFCE010E949002F1CF8D
:1005E000EB8DEC0FFD2FF11DE35AFF4FF0829FB70B
:1005F000F8940B8FEA89FB8980818062CFCFCF93FB
:10060000DF93EC01888D8823B9F0AA89BB89E8893A
:10061000F9898C9185FD03C0808186FD0DC00FB6E0
:1006200007FCF7CF8C9185FFF2CF808185FFEDCF5E
:10063000CE010E949002E9CFDF91CF91089580E032
:1006400090E0892B29F00E94860281110E9400000F
:1006500080E090E0892B49F080E090E0892B29F040
:100660000E94000081110E94000080E090E0892B30
:1006700049F080E090E0892B29F00E940000811170
:100680000E94000080E090E0892B49F080E090E03B
:10069000892B29F00E94000081110C94000008951C
:1006A000CF93DF93D82FC92F60E085E30E94EE013E
:1006B0000CB405FC15C0CEBD00000DB407FEFDCF87
:1006C000CEB5DEBD00000DB407FEFDCFDEB561E0A6
:1006D00085E30E94EE018D2F9C2FDF91CF9108952D
:1006E000DEBD00000DB407FEFDCFDEB5CEBD0000BF
:1006F0000DB407FEFDCFCEB5EACF1F920F920FB615
:100700000F9211242F933F938F939F93AF93BF9397
:100710008091B9029091BA02A091BB02B091BC0243
:100720003091B80223E0230F2D3758F50196A11D13
:10073000B11D2093B8028093B9029093BA02A0939E
:10074000BB02B093BC028091B4029091B502A0911B
:10075000B602B091B7020196A11DB11D8093B402FB
:100760009093B502A093B602B093B702BF91AF9138
:100770009F918F913F912F910F900FBE0F901F90DF
:10078000189526E8230F0296A11DB11DD2CF1F9206
:100790000F920FB60F9211240BB60F922F933F9327
:1007A0004F935F936F937F938F939F93AF93BF9379
:1007B000EF93FF9387E192E00E949002FF91EF9107
:1007C000BF91AF919F918F917F916F915F914F9169
:1007D0003F912F910F900BBE0F900FBE0F901F9067
:1007E00018951F920F920FB60F9211240BB60F920D
:1007F0002F938F939F93EF93FF93E0912702F091B4
:1008000028028081E0912D02F0912E0282FD1DC010
:100810009081809130028F5F8F7320913102821717
:1008200041F0E0913002F0E0E95EFD4F958F80935A
:100830003002FF91EF919F918F912F910F900BBEFE
:100840000F900FBE0F901F9018958081F2CFCF931D
:10085000DF93CDB7DEB7AF970FB6F894DEBF0FBE0C
:10086000CDBF789484B5826084BD84B5816084BD39
:1008700085B5826085BD85B5816085BD80916E003E
:10088000816080936E00109281008091810082606F
:1008900080938100809181008160809381008091AC
:1008A00080008160809380008091B100846080939B
:1008B000B1008091B00081608093B0008091910080
:1008C000826080939100809191008160809391007B
:1008D000809190008160809390008091A10082605F
:1008E0008093A1008091A10081608093A1008091FC
:1008F000A00081608093A00080912101826080939C
:10090000210180912101816080932101809120014A
:1009100081608093200180917A00846080937A00C6
:1009200080917A00826080937A0080917A00816061
:1009300080937A0080917A00806880937A00109288
:10094000C10085E30E94680182E00E94680183E0A3
:100950000E94680184E00E94680185E00E946801AD
:1009600086E00E94680187E00E94680188E00E949A
:10097000680189E00E94680161E085E30E94EE0160
:1009800085E58CBD1DBCFFB6F894809116028111DF
:1009900024C0E1E1F2E08491E7E5F2E09491E82FF0
:1009A000F0E0EE0FFF1FEE53FE4FA591B491EC91D6
:1009B000E92321F461E085E30E94EE0185E30E94D2
:1009C00068018CB580618CBD8CB580648CBD84E37E
:1009D0000E94680183E30E946801809116028F5F84
:1009E00080931602FFBEE0912702F091280282E078
:1009F0008083E0912302F09124021082E09125028D
:100A0000F09126028FEC808310922F02E0912B024E
:100A1000F0912C0286E08083E0912902F0912A0275
:100A2000808180618083E0912902F0912A02808197
:100A300088608083E0912902F0912A028081806899
:100A40008083E0912902F0912A0280818F7D80834A
:100A5000F12CE12C1E012CE2220E311C3AE0432E37
:100A6000512C612C712C87E192E00E947A02892B33
:100A700099F08AE0E816F1049CF487E192E00E9484
:100A80005802E2E2F0E0EC0FFD1FEE0DFF1D808347
:100A90009FEFE91AF90AE7CFAAE0EA16F1041CF37E
:100AA0005E01B2E2AB0EB11C4501C12CD12C760126
:100AB000AAE0B0E0A70196010E947606F401219118
:100AC0004F01022E000C330B205331096901330F03
:100AD000EE08FF08C60ED71EE81EF91E2E163F06AA
:100AE00039F78F2D9927AA27BB27AC01BD014F7776
:100AF000552766277727493251056105710559F059
:100B00004C3351056105710531F0453251056105E0
:100B1000710509F043C08F77853209F049C0C701DC
:100B20000E945003C6010E94500390E080E00E94A2
:100B300050038C01CC24DD24980150E040E02C29A6
:100B40003D294E295F2919A27E0181E2E80EF11CA0
:100B5000CA01B901A30192010E944C06605DD70150
:100B60006E937D01211531054105510589F71097D7
:100B700069F0FD0101900020E9F73197AF014A1BB0
:100B80005B0BBD0187E192E00E941C0242E050E055
:100B900062E172E087E192E00E941C02F50129E621
:100BA00021935F018E169F06C9F7F12CE12C5BCFD4
:100BB0008C3311F4C701B7CF893209F0BBCFC7011D
:100BC000AA27BB278CA79DA7AEA7BFA761E0D70127
:100BD000C601AA27BB278F3F9F4FA105B10509F08A
:100BE00060E08CA50E94EE01FCA52F2F30E0F901FA
:100BF000EE59FE4F8491F901EE5DFD4F0491F9012C
:100C0000E452FE4F14911123B9F081110E94870123
:100C1000E12FF0E0EE0FFF1FE85BFE4FA591B491CE
:100C2000EC910E2381E090E011F490E080E0002749
:100C30001127081B190B7ECF10E000E07BCFE7E106
:100C4000F2E01382128288EE93E0A0E0B0E08483A9
:100C50009583A683B78384E092E09183808385ECBB
:100C600090E09587848784EC90E09787868780EC76
:100C700090E0918B808B81EC90E0938B828B82EC67
:100C800090E0958B848B86EC90E0978B868B118E11
:100C9000128E138E148E0895A1E21A2EAA1BBB1B6E
:100CA000FD010DC0AA1FBB1FEE1FFF1FA217B30738
:100CB000E407F50720F0A21BB30BE40BF50B661F4E
:100CC000771F881F991F1A9469F760957095809512
:100CD00090959B01AC01BD01CF010895EE0FFF1F60
:100CE000881F8BBF0790F691E02D19940E94810612
:100CF000A59F900DB49F900DA49F800D911D112470
:100D00000895A29FB001B39FC001A39F700D811DE4
:100D10001124911DB29F700D811D1124911D089504
:040D2000F894FFCF75
:100D240000000000B2021C024902FF027A025802CB
:060D34006C020D0A000034
:00000001FF
